{
  "_format": "hh-sol-artifact-1",
  "contractName": "SkillPathTrophies",
  "sourceName": "contracts/SkillPathTrophies.sol",
  "abi": [
    {
      "inputs": [],
      "stateMutability": "nonpayable",
      "type": "constructor"
    },
    {
      "inputs": [
        {
          "internalType": "address",
          "name": "sender",
          "type": "address"
        },
        {
          "internalType": "uint256",
          "name": "tokenId",
          "type": "uint256"
        },
        {
          "internalType": "address",
          "name": "owner",
          "type": "address"
        }
      ],
      "name": "ERC721IncorrectOwner",
      "type": "error"
    },
    {
      "inputs": [
        {
          "internalType": "address",
          "name": "operator",
          "type": "address"
        },
        {
          "internalType": "uint256",
          "name": "tokenId",
          "type": "uint256"
        }
      ],
      "name": "ERC721InsufficientApproval",
      "type": "error"
    },
    {
      "inputs": [
        {
          "internalType": "address",
          "name": "approver",
          "type": "address"
        }
      ],
      "name": "ERC721InvalidApprover",
      "type": "error"
    },
    {
      "inputs": [
        {
          "internalType": "address",
          "name": "operator",
          "type": "address"
        }
      ],
      "name": "ERC721InvalidOperator",
      "type": "error"
    },
    {
      "inputs": [
        {
          "internalType": "address",
          "name": "owner",
          "type": "address"
        }
      ],
      "name": "ERC721InvalidOwner",
      "type": "error"
    },
    {
      "inputs": [
        {
          "internalType": "address",
          "name": "receiver",
          "type": "address"
        }
      ],
      "name": "ERC721InvalidReceiver",
      "type": "error"
    },
    {
      "inputs": [
        {
          "internalType": "address",
          "name": "sender",
          "type": "address"
        }
      ],
      "name": "ERC721InvalidSender",
      "type": "error"
    },
    {
      "inputs": [
        {
          "internalType": "uint256",
          "name": "tokenId",
          "type": "uint256"
        }
      ],
      "name": "ERC721NonexistentToken",
      "type": "error"
    },
    {
      "inputs": [
        {
          "internalType": "address",
          "name": "owner",
          "type": "address"
        }
      ],
      "name": "OwnableInvalidOwner",
      "type": "error"
    },
    {
      "inputs": [
        {
          "internalType": "address",
          "name": "account",
          "type": "address"
        }
      ],
      "name": "OwnableUnauthorizedAccount",
      "type": "error"
    },
    {
      "inputs": [
        {
          "internalType": "uint256",
          "name": "value",
          "type": "uint256"
        },
        {
          "internalType": "uint256",
          "name": "length",
          "type": "uint256"
        }
      ],
      "name": "StringsInsufficientHexLength",
      "type": "error"
    },
    {
      "anonymous": false,
      "inputs": [
        {
          "indexed": true,
          "internalType": "address",
          "name": "owner",
          "type": "address"
        },
        {
          "indexed": true,
          "internalType": "address",
          "name": "approved",
          "type": "address"
        },
        {
          "indexed": true,
          "internalType": "uint256",
          "name": "tokenId",
          "type": "uint256"
        }
      ],
      "name": "Approval",
      "type": "event"
    },
    {
      "anonymous": false,
      "inputs": [
        {
          "indexed": true,
          "internalType": "address",
          "name": "owner",
          "type": "address"
        },
        {
          "indexed": true,
          "internalType": "address",
          "name": "operator",
          "type": "address"
        },
        {
          "indexed": false,
          "internalType": "bool",
          "name": "approved",
          "type": "bool"
        }
      ],
      "name": "ApprovalForAll",
      "type": "event"
    },
    {
      "anonymous": false,
      "inputs": [
        {
          "indexed": true,
          "internalType": "uint256",
          "name": "courseId",
          "type": "uint256"
        },
        {
          "indexed": false,
          "internalType": "string",
          "name": "courseName",
          "type": "string"
        },
        {
          "indexed": false,
          "internalType": "string",
          "name": "courseDescription",
          "type": "string"
        }
      ],
      "name": "CourseAdded",
      "type": "event"
    },
    {
      "anonymous": false,
      "inputs": [
        {
          "indexed": true,
          "internalType": "address",
          "name": "previousOwner",
          "type": "address"
        },
        {
          "indexed": true,
          "internalType": "address",
          "name": "newOwner",
          "type": "address"
        }
      ],
      "name": "OwnershipTransferred",
      "type": "event"
    },
    {
      "anonymous": false,
      "inputs": [
        {
          "indexed": true,
          "internalType": "address",
          "name": "from",
          "type": "address"
        },
        {
          "indexed": true,
          "internalType": "address",
          "name": "to",
          "type": "address"
        },
        {
          "indexed": true,
          "internalType": "uint256",
          "name": "tokenId",
          "type": "uint256"
        }
      ],
      "name": "Transfer",
      "type": "event"
    },
    {
      "anonymous": false,
      "inputs": [
        {
          "indexed": true,
          "internalType": "uint256",
          "name": "courseId",
          "type": "uint256"
        },
        {
          "indexed": true,
          "internalType": "address",
          "name": "user",
          "type": "address"
        },
        {
          "indexed": false,
          "internalType": "uint256",
          "name": "tokenId",
          "type": "uint256"
        }
      ],
      "name": "TrophyClaimed",
      "type": "event"
    },
    {
      "inputs": [
        {
          "internalType": "uint256",
          "name": "courseId",
          "type": "uint256"
        },
        {
          "internalType": "string",
          "name": "courseName",
          "type": "string"
        },
        {
          "internalType": "string",
          "name": "courseDescription",
          "type": "string"
        },
        {
          "internalType": "string",
          "name": "imageUri",
          "type": "string"
        }
      ],
      "name": "addCourse",
      "outputs": [],
      "stateMutability": "nonpayable",
      "type": "function"
    },
    {
      "inputs": [
        {
          "internalType": "address",
          "name": "to",
          "type": "address"
        },
        {
          "internalType": "uint256",
          "name": "tokenId",
          "type": "uint256"
        }
      ],
      "name": "approve",
      "outputs": [],
      "stateMutability": "nonpayable",
      "type": "function"
    },
    {
      "inputs": [
        {
          "internalType": "address",
          "name": "owner",
          "type": "address"
        }
      ],
      "name": "balanceOf",
      "outputs": [
        {
          "internalType": "uint256",
          "name": "",
          "type": "uint256"
        }
      ],
      "stateMutability": "view",
      "type": "function"
    },
    {
      "inputs": [
        {
          "internalType": "uint256",
          "name": "courseId",
          "type": "uint256"
        }
      ],
      "name": "claimTrophy",
      "outputs": [],
      "stateMutability": "nonpayable",
      "type": "function"
    },
    {
      "inputs": [
        {
          "internalType": "uint256",
          "name": "",
          "type": "uint256"
        }
      ],
      "name": "courses",
      "outputs": [
        {
          "internalType": "string",
          "name": "name",
          "type": "string"
        },
        {
          "internalType": "string",
          "name": "description",
          "type": "string"
        },
        {
          "internalType": "string",
          "name": "imageUri",
          "type": "string"
        },
        {
          "internalType": "bool",
          "name": "exists",
          "type": "bool"
        }
      ],
      "stateMutability": "view",
      "type": "function"
    },
    {
      "inputs": [
        {
          "internalType": "uint256",
          "name": "tokenId",
          "type": "uint256"
        }
      ],
      "name": "getApproved",
      "outputs": [
        {
          "internalType": "address",
          "name": "",
          "type": "address"
        }
      ],
      "stateMutability": "view",
      "type": "function"
    },
    {
      "inputs": [
        {
          "internalType": "uint256",
          "name": "tokenId",
          "type": "uint256"
        }
      ],
      "name": "getTrophyMetadata",
      "outputs": [
        {
          "components": [
            {
              "internalType": "uint256",
              "name": "courseId",
              "type": "uint256"
            },
            {
              "internalType": "address",
              "name": "userAddress",
              "type": "address"
            },
            {
              "internalType": "uint256",
              "name": "dateClaimed",
              "type": "uint256"
            },
            {
              "internalType": "string",
              "name": "courseName",
              "type": "string"
            }
          ],
          "internalType": "struct SkillPathTrophies.TrophyMetadata",
          "name": "",
          "type": "tuple"
        }
      ],
      "stateMutability": "view",
      "type": "function"
    },
    {
      "inputs": [
        {
          "internalType": "address",
          "name": "user",
          "type": "address"
        }
      ],
      "name": "getUserTrophies",
      "outputs": [
        {
          "internalType": "uint256[]",
          "name": "",
          "type": "uint256[]"
        }
      ],
      "stateMutability": "view",
      "type": "function"
    },
    {
      "inputs": [
        {
          "internalType": "uint256",
          "name": "",
          "type": "uint256"
        },
        {
          "internalType": "address",
          "name": "",
          "type": "address"
        }
      ],
      "name": "hasClaimed",
      "outputs": [
        {
          "internalType": "bool",
          "name": "",
          "type": "bool"
        }
      ],
      "stateMutability": "view",
      "type": "function"
    },
    {
      "inputs": [
        {
          "internalType": "uint256",
          "name": "courseId",
          "type": "uint256"
        },
        {
          "internalType": "address",
          "name": "user",
          "type": "address"
        }
      ],
      "name": "hasUserClaimed",
      "outputs": [
        {
          "internalType": "bool",
          "name": "",
          "type": "bool"
        }
      ],
      "stateMutability": "view",
      "type": "function"
    },
    {
      "inputs": [
        {
          "internalType": "address",
          "name": "owner",
          "type": "address"
        },
        {
          "internalType": "address",
          "name": "operator",
          "type": "address"
        }
      ],
      "name": "isApprovedForAll",
      "outputs": [
        {
          "internalType": "bool",
          "name": "",
          "type": "bool"
        }
      ],
      "stateMutability": "view",
      "type": "function"
    },
    {
      "inputs": [],
      "name": "name",
      "outputs": [
        {
          "internalType": "string",
          "name": "",
          "type": "string"
        }
      ],
      "stateMutability": "view",
      "type": "function"
    },
    {
      "inputs": [],
      "name": "owner",
      "outputs": [
        {
          "internalType": "address",
          "name": "",
          "type": "address"
        }
      ],
      "stateMutability": "view",
      "type": "function"
    },
    {
      "inputs": [
        {
          "internalType": "uint256",
          "name": "tokenId",
          "type": "uint256"
        }
      ],
      "name": "ownerOf",
      "outputs": [
        {
          "internalType": "address",
          "name": "",
          "type": "address"
        }
      ],
      "stateMutability": "view",
      "type": "function"
    },
    {
      "inputs": [],
      "name": "renounceOwnership",
      "outputs": [],
      "stateMutability": "nonpayable",
      "type": "function"
    },
    {
      "inputs": [
        {
          "internalType": "address",
          "name": "from",
          "type": "address"
        },
        {
          "internalType": "address",
          "name": "to",
          "type": "address"
        },
        {
          "internalType": "uint256",
          "name": "tokenId",
          "type": "uint256"
        }
      ],
      "name": "safeTransferFrom",
      "outputs": [],
      "stateMutability": "nonpayable",
      "type": "function"
    },
    {
      "inputs": [
        {
          "internalType": "address",
          "name": "from",
          "type": "address"
        },
        {
          "internalType": "address",
          "name": "to",
          "type": "address"
        },
        {
          "internalType": "uint256",
          "name": "tokenId",
          "type": "uint256"
        },
        {
          "internalType": "bytes",
          "name": "data",
          "type": "bytes"
        }
      ],
      "name": "safeTransferFrom",
      "outputs": [],
      "stateMutability": "nonpayable",
      "type": "function"
    },
    {
      "inputs": [
        {
          "internalType": "address",
          "name": "operator",
          "type": "address"
        },
        {
          "internalType": "bool",
          "name": "approved",
          "type": "bool"
        }
      ],
      "name": "setApprovalForAll",
      "outputs": [],
      "stateMutability": "nonpayable",
      "type": "function"
    },
    {
      "inputs": [
        {
          "internalType": "bytes4",
          "name": "interfaceId",
          "type": "bytes4"
        }
      ],
      "name": "supportsInterface",
      "outputs": [
        {
          "internalType": "bool",
          "name": "",
          "type": "bool"
        }
      ],
      "stateMutability": "view",
      "type": "function"
    },
    {
      "inputs": [],
      "name": "symbol",
      "outputs": [
        {
          "internalType": "string",
          "name": "",
          "type": "string"
        }
      ],
      "stateMutability": "view",
      "type": "function"
    },
    {
      "inputs": [
        {
          "internalType": "uint256",
          "name": "tokenId",
          "type": "uint256"
        }
      ],
      "name": "tokenURI",
      "outputs": [
        {
          "internalType": "string",
          "name": "",
          "type": "string"
        }
      ],
      "stateMutability": "view",
      "type": "function"
    },
    {
      "inputs": [],
      "name": "totalSupply",
      "outputs": [
        {
          "internalType": "uint256",
          "name": "",
          "type": "uint256"
        }
      ],
      "stateMutability": "view",
      "type": "function"
    },
    {
      "inputs": [
        {
          "internalType": "address",
          "name": "from",
          "type": "address"
        },
        {
          "internalType": "address",
          "name": "to",
          "type": "address"
        },
        {
          "internalType": "uint256",
          "name": "tokenId",
          "type": "uint256"
        }
      ],
      "name": "transferFrom",
      "outputs": [],
      "stateMutability": "nonpayable",
      "type": "function"
    },
    {
      "inputs": [
        {
          "internalType": "address",
          "name": "newOwner",
          "type": "address"
        }
      ],
      "name": "transferOwnership",
      "outputs": [],
      "stateMutability": "nonpayable",
      "type": "function"
    },
    {
      "inputs": [
        {
          "internalType": "uint256",
          "name": "",
          "type": "uint256"
        }
      ],
      "name": "trophyMetadata",
      "outputs": [
        {
          "internalType": "uint256",
          "name": "courseId",
          "type": "uint256"
        },
        {
          "internalType": "address",
          "name": "userAddress",
          "type": "address"
        },
        {
          "internalType": "uint256",
          "name": "dateClaimed",
          "type": "uint256"
        },
        {
          "internalType": "string",
          "name": "courseName",
          "type": "string"
        }
      ],
      "stateMutability": "view",
      "type": "function"
    },
    {
      "inputs": [
        {
          "internalType": "uint256",
          "name": "courseId",
          "type": "uint256"
        },
        {
          "internalType": "string",
          "name": "courseName",
          "type": "string"
        },
        {
          "internalType": "string",
          "name": "courseDescription",
          "type": "string"
        },
        {
          "internalType": "string",
          "name": "imageUri",
          "type": "string"
        }
      ],
      "name": "updateCourse",
      "outputs": [],
      "stateMutability": "nonpayable",
      "type": "function"
    }
  ],
  "bytecode": "0x6080346200037e576001600160401b0390604081810183811183821017620003685781526012825260209171536b696c6c506174682054726f706869657360701b838201528151938285018581108282111762000368578352600385526214d41560ea1b84860152815181811162000368576000948554916001948584811c941680156200035d575b8385101462000349578190601f94858111620002f6575b5083908583116001146200029257899262000286575b5050600019600383901b1c191690851b1786555b8651928311620002725783548481811c9116801562000267575b8282101462000253578281116200020b575b5080918311600114620001a457508495829394959262000198575b5050600019600383901b1c191690821b1790555b3315620001805760068054336001600160a01b03198216811790925591519290916001600160a01b0316907f8be0079c531659141344cd1fd0a4f28419497f9722a3daafe3b4186f6b6457e09080a36122a69081620003848239f35b51631e4fbdf760e01b81526004810191909152602490fd5b01519050388062000110565b90601f198316968487528287209287905b898210620001f3575050838596979810620001d9575b505050811b01905562000124565b015160001960f88460031b161c19169055388080620001cb565b808785968294968601518155019501930190620001b5565b8487528187208380860160051c82019284871062000249575b0160051c019085905b8281106200023d575050620000f5565b8881550185906200022d565b9250819262000224565b634e487b7160e01b87526022600452602487fd5b90607f1690620000e3565b634e487b7160e01b86526041600452602486fd5b015190503880620000b5565b898052848a208894509190601f1984168b5b87828210620002df5750508411620002c5575b505050811b018655620000c9565b015160001960f88460031b161c19169055388080620002b7565b8385015186558b97909501949384019301620002a4565b9091508880528389208580850160051c8201928686106200033f575b918991869594930160051c01915b828110620003305750506200009f565b8b815585945089910162000320565b9250819262000312565b634e487b7160e01b88526022600452602488fd5b93607f169362000088565b634e487b7160e01b600052604160045260246000fd5b600080fdfe608080604052600436101561001357600080fd5b60003560e01c90816301ffc9a714611b185750806306fdde0314611a7557806307c7a72d14611221578063081812fc14611a33578063095ea7b31461198b57806318160ddd1461196d57806323b872dd146119395780632451a5f91461186557806342842e0e146118225780635b89b7d1146117b95780636352211e1461178957806370a082311461175e578063715018a614611701578063861f444d1461126e578063873f6f9e146112215780638da5cb5b146111f85780638ec99d9014610e6357806395d89b4114610d8457806396f979d214610cf2578063a22cb46514610c65578063b88d4fde14610be6578063c87b56dd14610722578063d84a78b6146105f3578063e985e9c5146105c5578063f09fb808146101d05763f2fde38b1461013d57600080fd5b346101cb5760203660031901126101cb57610156611be1565b61015e611e4e565b6001600160a01b039081169081156101b257600654826bffffffffffffffffffffffff60a01b821617600655167f8be0079c531659141344cd1fd0a4f28419497f9722a3daafe3b4186f6b6457e0600080a3005b604051631e4fbdf760e01b815260006004820152602490fd5b600080fd5b346101cb576020806003193601126101cb57600435806000526007825260039161020360ff846040600020015416611eee565b8160005260088152604060002033600052815260ff6040600020541661057257816000526007815260ff83604060002001541680610553575b1561050f57600a549261024e84611f32565b600a55826000526008825260406000203360005282526040600020906001918260ff198254161790558360005260078352604060002060405161029081611c66565b85815284810190338252836102ab6040830194428652611cd8565b6060830190815260008a8152600989526040902092518355925186830180546001600160a01b03199081166001600160a01b0393841617909155945160028401559251805191909201916001600160401b0382116104f957819061030f8454611c2c565b601f81116104a6575b508890601f831160011461044457600092610439575b505060001982871b1c191690861b1790555b3315610420578660005260028552604060002054169283151592836103fb575b336000528552604060002090815401905585600052600284526040600020903390825416179055846040519233907fddf252ad1be2c89b69c2b068fc378daa952ba7f163c4a11628f55a4df523b3ef600080a46103e557507f4642a5f70023b5a0f480d3ed84c534dae1ab9950c40c8efa22c79b81a6aefc3f906040519384523393a3005b6339e3563760e11b815260006004820152602490fd5b6004865260406000818120805486169055868152828852208054600019019055610360565b604051633250574960e11b815260006004820152602490fd5b015190508a8061032e565b90889350601f19831691856000528a6000209260005b8c8282106104905750508411610478575b505050811b019055610340565b015160001983891b60f8161c191690558a808061046b565b8385015186558c9790950194938401930161045a565b9091508360005288600020601f840160051c8101918a85106104ef575b84939291601f8b920160051c01915b8281106104e0575050610318565b600081558594508a91016104d2565b90915081906104c3565b634e487b7160e01b600052604160045260246000fd5b6064906040519062461bcd60e51b82526004820152601c60248201527f55736572206e6f7420656c696769626c6520666f722074726f706879000000006044820152fd5b5060088152604060002033600052815260ff604060002054161561023c565b6084906040519062461bcd60e51b82526004820152602660248201527f54726f70687920616c726561647920636c61696d656420666f72207468697320604482015265636f7572736560d01b6064820152fd5b346101cb5760403660031901126101cb576105de611be1565b506105e7611bcb565b50602060405160008152f35b346101cb576020806003193601126101cb5761060d611be1565b61061681611e7a565b61063861062282611f84565b916106306040519384611cb7565b808352611f84565b8184019290601f190136843760008091600a54925b83811061069757868587604051928392818401908285525180915260408401929160005b82811061068057505050500390f35b835185528695509381019392810192600101610671565b60008181526002885260409020546001600160a01b039081161515908161070b575b506106cd575b6106c890611f32565b61064d565b9184518110156106f5576106ed8184896106c89460051b89010152611f32565b9290506106bf565b634e487b7160e01b600052603260045260246000fd5b905061071682611eb3565b811690831614886106b9565b346101cb576020806003193601126101cb5760043560008181526002835260409020546001600160a01b03919061075c9083161515611f41565b6000526009825260406000209060405161077581611c66565b82548152600192828482015416928583019384526107a160036002840154936040860194855201611cd8565b6060840152825160005260078652604060002092604051916107c283611c66565b6107cb85611cd8565b83526107d8878601611cd8565b8884015260ff60036107ec60028801611cd8565b966040860197885201541615156060840152825195511691826040519361081285611c9c565b602a8552898501986040368b378551156106f55760308a5385518110156106f557607860218701536029905b808211610b88575050610b69575092610aff969592610a9e959261087361086c61012a9751955192516120c5565b93516120c5565b936040519889967f7b226e616d65223a2022536b696c6c506174682054726f706879202d200000008d8901526108b38d8251928391603d8c019101611b83565b87016108f861088b60f21b9586603d8401527f226465736372697074696f6e223a20224177617264656420746f200000000000603f840152518093605a840190611b83565b01730103337b91031b7b6b83632ba34b733903a3432960651b605a82015261092a8c8351938491606e85019101611b83565b017f20636f75727365206f6e20536b696c6c506174682e222c000000000000000000606e820152691134b6b0b3b2911d101160b11b6085820152610977825180938d608f85019101611b83565b0190608f8201526e2261747472696275746573223a205b60881b60918201527f7b2274726169745f74797065223a2022436f75727365204944222c202276616c60a0820152653ab2911d101160d11b60c08201526109de825180938b60c685019101611b83565b019062089f4b60ea1b918260c68201527f7b2274726169745f74797065223a20224461746520436c61696d6564222c202260c9820152683b30b63ab2911d101160b91b60e9820152610a39825180938b60f285019101611b83565b019060f28201527f7b2274726169745f74797065223a20224e6f6e2d5472616e7366657261626c6560f582015272222c202276616c7565223a202274727565227d60681b610115820152615d7d60f01b6101288201520361010a810184520182611cb7565b60405190610aab82611c9c565b604082527f4142434445464748494a4b4c4d4e4f505152535455565758595a616263646566848301527f6768696a6b6c6d6e6f707172737475767778797a303132333435363738392b2f6040830152611fcd565b90610b51603d60405180947f646174613a6170706c69636174696f6e2f6a736f6e3b6261736536342c00000085830152610b4181518092878686019101611b83565b810103601d810185520183611cb7565b610b65604051928284938452830190611ba6565b0390f35b6044906040519063e22e27eb60e01b8252600482015260146024820152fd5b9091600f811660108110156106f55787518410156106f5576f181899199a1a9b1b9c1cb0b131b232b360811b901a8784018d015360041c918015610bd057600019019061083e565b634e487b7160e01b600052601160045260246000fd5b346101cb5760803660031901126101cb57610bff611be1565b50610c08611bcb565b506064356001600160401b0381116101cb57366023820112156101cb57610c39903690602481600401359101611d99565b50604435600090815260026020526040902054610c60906001600160a01b03161515611f41565b612208565b346101cb5760403660031901126101cb57610c7e611be1565b50602435801515036101cb5760405162461bcd60e51b815260206004820152603a60248201527f536b696c6c5061746854726f70686965733a20417070726f76616c206e6f7420604482015279616c6c6f776564202d20536f756c626f756e6420746f6b656e7360301b6064820152608490fd5b346101cb5760203660031901126101cb576004356000526007602052610d5c6040600020610d1f81611cd8565b90610d78610d2f60018301611cd8565b91610d6a60ff6003610d4360028501611cd8565b9301541693604051968796608088526080880190611ba6565b908682036020880152611ba6565b908482036040860152611ba6565b90151560608301520390f35b346101cb5760003660031901126101cb5760405160006001805490610da882611c2c565b80855291818116908115610e3c5750600114610de3575b610b6584610dcf81860382611cb7565b604051918291602083526020830190611ba6565b600081815292507fb10e2d527612073b26eecdfd717e6a320cf44b4afac2b0732d9fcbe2b7fa0cf65b828410610e24575050508101602001610dcf82610dbf565b80546020858701810191909152909301928101610e0c565b60ff191660208087019190915292151560051b85019092019250610dcf9150839050610dbf565b346101cb57610e7136611dee565b91610e7d939193611e4e565b816000526007602052610e9a60ff60036040600020015416611eee565b8160005260076020526040600020908051906001600160401b0382116104f9578190610ec68454611c2c565b601f81116111a5575b50602090601f831160011461113f57600092611134575b50508160011b916000199060031b1c19161790555b806000526007602052600160406000200183516001600160401b0381116104f957610f268254611c2c565b601f81116110ec575b50602094601f82116001146110865794819293949560009261107b575b50508160011b916000199060031b1c19161790555b6000526007602052600260406000200181516001600160401b0381116104f957610f8b8254611c2c565b601f8111611033575b50602092601f8211600114610fd25792819293600092610fc7575b5050600019600383901b1c191660019190911b179055005b015190508380610faf565b601f198216938360005260206000209160005b86811061101b5750836001959610611002575b505050811b019055005b015160001960f88460031b161c19169055838080610ff8565b91926020600181928685015181550194019201610fe5565b826000526020600020601f830160051c81019160208410611071575b601f0160051c01905b8181106110655750610f94565b60008155600101611058565b909150819061104f565b015190508580610f4c565b601f198216958360005260206000209160005b8881106110d4575083600195969798106110bb575b505050811b019055610f61565b015160001960f88460031b161c191690558580806110ae565b91926020600181928685015181550194019201611099565b826000526020600020601f830160051c8101916020841061112a575b601f0160051c01905b81811061111e5750610f2f565b60008155600101611111565b9091508190611108565b015190508680610ee6565b6000858152602081209350601f198516905b81811061118d5750908460019594939210611174575b505050811b019055610efb565b015160001960f88460031b161c19169055868080611167565b92936020600181928786015181550195019301611151565b909150836000526020600020601f840160051c810191602085106111ee575b90601f859493920160051c01905b8181106111df5750610ecf565b600081558493506001016111d2565b90915081906111c4565b346101cb5760003660031901126101cb576006546040516001600160a01b039091168152602090f35b346101cb5760403660031901126101cb5761123a611bcb565b600435600052600860205260406000209060018060a01b0316600052602052602060ff604060002054166040519015158152f35b346101cb5761127c36611dee565b611284611e4e565b83600052600760205260ff600360406000200154166116c457604051906112aa82611c66565b838252826020830152604082015260016060820152836000526007602052604060002081518051906001600160401b0382116104f95781906112ec8454611c2c565b601f8111611674575b50602090601f831160011461160e57600092611603575b50508160011b916000199060031b1c19161781555b60208201518051906001600160401b0382116104f95781906113466001850154611c2c565b601f81116115b0575b50602090601f831160011461154357600092611538575b50508160011b916000199060031b1c19161760018201555b60408201518051906001600160401b0382116104f9576113a16002840154611c2c565b601f81116114ed575b50602090601f831160011461144f57600361143f948461143198957f60dc19c8b14fd3a7f20dd113bdacc08bd8cdbfc6d28dcf1169272fc32eaef6c39a9895606095600092611444575b50508160011b9160001990851b1c19161760028201555b01910151151560ff80198354169116179055604051938493604085526040850190611ba6565b908382036020850152611ba6565b0390a2005b015190508c806113f4565b906002840160005260206000209160005b601f19851681106114d5575061143f946001857f60dc19c8b14fd3a7f20dd113bdacc08bd8cdbfc6d28dcf1169272fc32eaef6c39a98956060956003956114319c99601f198116106114bd575b505050811b01600282015561140b565b015160001983871b60f8161c191690558c80806114ad565b91926020600181928685015181550194019201611460565b600284016000526020600020601f840160051c8101916020851061152e575b601f0160051c01905b81811061152257506113aa565b60008155600101611515565b909150819061150c565b015190508780611366565b600185016000908152602081209350601f198516905b818110611598575090846001959493921061157f575b505050811b01600182015561137e565b015160001960f88460031b161c1916905587808061156f565b92936020600181928786015181550195019301611559565b909150600184016000526020600020601f840160051c8101602085106115fc575b90849392915b601f830160051c820181106115ed57505061134f565b600081558594506001016115d7565b50806115d1565b01519050878061130c565b6000858152602081209350601f198516905b81811061165c5750908460019594939210611643575b505050811b018155611321565b015160001960f88460031b161c19169055878080611636565b92936020600181928786015181550195019301611620565b909150836000526020600020601f840160051c8101602085106116bd575b90849392915b601f830160051c820181106116ae5750506112f5565b60008155859450600101611698565b5080611692565b60405162461bcd60e51b8152602060048201526015602482015274436f7572736520616c72656164792065786973747360581b6044820152606490fd5b346101cb5760003660031901126101cb5761171a611e4e565b600680546001600160a01b031981169091556000906001600160a01b03167f8be0079c531659141344cd1fd0a4f28419497f9722a3daafe3b4186f6b6457e08280a3005b346101cb5760203660031901126101cb57602061178161177c611be1565b611e7a565b604051908152f35b346101cb5760203660031901126101cb5760206117a7600435611eb3565b6040516001600160a01b039091168152f35b346101cb5760203660031901126101cb57600435600052600960205260406000208054610b6560018060a01b03600184015416926117fe600360028301549201611cd8565b90604051948594855260208501526040840152608060608401526080830190611ba6565b346101cb5761183036611bf7565b915050600060405161184181611c81565b52600090815260026020526040902054610c60906001600160a01b03161515611f41565b346101cb576020806003193601126101cb5760043560608060405161188981611c66565b60008152600085820152600060408201520152806000526002825260018060a01b03906118be82604060002054161515611f41565b60005260098252610b65604060002091604051926118db84611c66565b80548452816001820154169185850192835261190560036002840154936040880194855201611cd8565b92606086019384526040519687968188525190870152511660408501525160608401525160808084015260a0830190611ba6565b346101cb5761194736611bf7565b600090815260026020526040902054610c6092506001600160a01b031615159050611f41565b346101cb5760003660031901126101cb576020600a54604051908152f35b346101cb5760403660031901126101cb576119a4611be1565b506024356000908152600260205260409020546119cb906001600160a01b03161515611f41565b60405162461bcd60e51b815260206004820152603a60248201527f536b696c6c5061746854726f70686965733a20417070726f76616c206e6f7420604482015279616c6c6f776564202d20536f756c626f756e6420746f6b656e7360301b6064820152608490fd5b346101cb5760203660031901126101cb57600435600090815260026020526040902054611a6a906001600160a01b03161515611f41565b602060405160008152f35b346101cb5760003660031901126101cb5760405160008054611a9681611c2c565b80845290600190818116908115610e3c5750600114611abf57610b6584610dcf81860382611cb7565b600080805292507f290decd9548b62a8d60345a988386fc84ba6bc95484008f6362f93160ef3e5635b828410611b00575050508101602001610dcf82610dbf565b80546020858701810191909152909301928101611ae8565b346101cb5760203660031901126101cb576004359063ffffffff60e01b82168092036101cb576020916380ac58cd60e01b8114908115611b72575b8115611b61575b5015158152f35b6301ffc9a760e01b14905083611b5a565b635b5e139f60e01b81149150611b53565b60005b838110611b965750506000910152565b8181015183820152602001611b86565b90602091611bbf81518092818552858086019101611b83565b601f01601f1916010190565b602435906001600160a01b03821682036101cb57565b600435906001600160a01b03821682036101cb57565b60609060031901126101cb576001600160a01b039060043582811681036101cb579160243590811681036101cb579060443590565b90600182811c92168015611c5c575b6020831014611c4657565b634e487b7160e01b600052602260045260246000fd5b91607f1691611c3b565b608081019081106001600160401b038211176104f957604052565b602081019081106001600160401b038211176104f957604052565b606081019081106001600160401b038211176104f957604052565b90601f801991011681019081106001600160401b038211176104f957604052565b9060405191826000825492611cec84611c2c565b908184526001948581169081600014611d5b5750600114611d18575b5050611d1692500383611cb7565b565b9093915060005260209081600020936000915b818310611d43575050611d1693508201013880611d08565b85548884018501529485019487945091830191611d2b565b915050611d1694506020925060ff191682840152151560051b8201013880611d08565b6001600160401b0381116104f957601f01601f191660200190565b929192611da582611d7e565b91611db36040519384611cb7565b8294818452818301116101cb578281602093846000960137010152565b9080601f830112156101cb57816020611deb93359101611d99565b90565b9060806003198301126101cb57600435916001600160401b03916024358381116101cb5782611e1f91600401611dd0565b926044358181116101cb5783611e3791600401611dd0565b926064359182116101cb57611deb91600401611dd0565b6006546001600160a01b03163303611e6257565b60405163118cdaa760e01b8152336004820152602490fd5b6001600160a01b03168015611e9a57600052600360205260406000205490565b6040516322718ad960e21b815260006004820152602490fd5b6000818152600260205260409020546001600160a01b0316908115611ed6575090565b60249060405190637e27328960e01b82526004820152fd5b15611ef557565b60405162461bcd60e51b815260206004820152601560248201527410dbdd5c9cd948191bd95cc81b9bdd08195e1a5cdd605a1b6044820152606490fd5b6000198114610bd05760010190565b15611f4857565b60405162461bcd60e51b8152602060048201526014602482015273151bdad95b88191bd95cc81b9bdd08195e1a5cdd60621b6044820152606490fd5b6001600160401b0381116104f95760051b60200190565b90611fa582611d7e565b611fb26040519182611cb7565b8281528092611fc3601f1991611d7e565b0190602036910137565b8051156120b0578051600291828201809211610bd0576003918290046001600160fe1b0381168103610bd057612006908495941b611f9b565b936020850193829183518401906020820192835194600085525b83811061205f57505050505251068060011461204c57600214612041575090565b603d90600019015390565b50603d9081600019820153600119015390565b87600491999293949901918251600190603f9082828260121c16880101518453828282600c1c16880101518385015382828260061c1688010151888501531685010151898201530197929190612020565b50506040516120be81611c81565b6000815290565b806000917a184f03e93ff9f4daa797ed6e38ed64bf6a1f010000000000000000808210156121fa575b506d04ee2d6d415b85acef8100000000808310156121eb575b50662386f26fc10000808310156121dc575b506305f5e100808310156121cd575b50612710808310156121be575b5060648210156121ae575b600a809210156121a4575b60019081602161215c828701611f9b565b95860101905b61216e575b5050505090565b600019019083906f181899199a1a9b1b9c1cb0b131b232b360811b8282061a83530491821561219f57919082612162565b612167565b916001019161214b565b9190606460029104910191612140565b60049193920491019138612135565b60089193920491019138612128565b60109193920491019138612119565b60209193920491019138612107565b6040935081049150386120ee565b60405162461bcd60e51b815260206004820152603a60248201527f536b696c6c5061746854726f70686965733a205472616e73666572206e6f7420604482015279616c6c6f776564202d20536f756c626f756e6420746f6b656e7360301b6064820152608490fdfea2646970667358221220af63aa1d9af9878b762a6715e5bd753398d9002c2de7e4696088f146ea12def064736f6c63430008140033",
  "linkReferences": {},
  "deployedLinkReferences": {}
}